:020000040003F7
:10C800003834002065CA030077CA030079CA0300E0
:10C810000000000000000000000000000000000018
:10C820000000000000000000000000007BCA0300C0
:10C8300000000000000000007DCA03007FCA030062
:10C8400081CA030081CA030081CA030081CA0300B0
:10C8500081CA03000000000031DF030081CA030029
:10C8600081CA030081CA030081CA030081CA030090
:10C8700081CA030081CA030081CA030081CA030080
:10C8800081CA030025D8030081CA030081CA0300BE
:10C890003BD8030081CA03002DE1030081CA0300D5
:10C8A00081CA030081CA03000000000000000000EC
:10C8B0000000000000000000000000000000000078
:10C8C00000F002F800F040F80CA030C80838241836
:10C8D0002D18A246671EAB4654465D46AC4201D1B8
:10C8E00000F032F87E460F3E0FCCB64601263342AA
:10C8F00000D0FB1AA246AB4633431847C42F0000B2
:10C90000E42F0000103A02D378C878C1FAD8520751
:10C9100001D330C830C101D504680C6070470000F5
:10C920000023002400250026103A01D378C1FBD84B
:10C93000520700D330C100D50B6070471FB5C04609
:10C94000C0461FBD10B510BD02F074FF1146FFF7C1
:10C95000F5FF00F0BAF802F08CFF03B4FFF7F2FF26
:10C9600003BC02F091FF0000026882F3088843686C
:10C9700018470000401E00BF00BF00BF00BF00BF3F
:10C9800000BF00BF00BF00BF00BF00BF00BFF1D1AC
:10C990007047000070B505460C46164602E00FCC05
:10C9A0000FC5103E102EFAD2082E02D303CC03C5B9
:10C9B000083E042E07D301CC01C5361F03E02178C1
:10C9C0002970641C6D1C761EF9D270BD10B500F084
:10C9D0001DF8002805D01F491D484860C8131E498E
:10C9E00088611E48018CC9B201290ED1818C0907CA
:10C9F0000BD1018D0906090F042906D1808D00068F
:10CA0000000F02D116490120886010BD1348018C27
:10CA1000C9B2012917D1818C090714D1018D0906EA
:10CA20000A0F03D1828D1206120F0ED0090F0129B1
:10CA300003D1828D1206120F07D0032903D1808DF6
:10CA40000006000F01D00020704701207047000051
:10CA5000DFFF07C000050040006C0040C00F00F081
:10CA6000000600400A48026803210A4302600948A0
:10CA7000804709480047FEE7FEE7FEE7FEE7FEE7DE
:10CA8000FEE7000005480649064A074B70470000CC
:10CA900024050040CDC90300C1C803003828002088
:10CAA00038340020382C0020382C00200120744914
:10CAB000C003886000F0A7F80A4601467148FFF7F6
:10CAC000F5FF10B501F0A8FC10BD08B5082000F076
:10CAD000A2F8092000F09FF80A2000F09CF80F202F
:10CAE00000F099F8122000F096F8674801680524D4
:10CAF000A403A14218D140697921C902884216D104
:10CB000001200007006901218902884212D15F4893
:10CB100000905F4B05220321002000F0B4FE0028A6
:10CB20000DD05CA29B2108E05AA2D82104E059A2B2
:10CB3000DA2101E057A2DB210020FFF7B7FF5449BB
:10CB40000120143901F034FA002802D051A29021BA
:10CB5000F3E7544952480860534B50225349002090
:10CB600001F0C0FA002802D04AA2BE21E5E75048F1
:10CB700001F0D4FA002802D046A2C121DDE74B4AD9
:10CB800014215032082001F0D7F8002802D041A229
:10CB9000C921D2E73A4D2869C003C00F04D020460E
:10CBA00000F04DFA00280CD101208004A86000F0AC
:10CBB000C6FA002802D037A2EE21BEE7122000F00C
:10CBC00031F8204600F03BFA00280ED0082000F093
:10CBD00029F8092000F026F80A2000F023F80F2099
:10CBE00000F020F8204600F0D6FA082000F01AF8ED
:10CBF000092000F017F80A2000F014F80F2000F0C8
:10CC000011F800F000F8BFF34F8F2B492948C86096
:10CC1000BFF34F8FFEE7234A01218000403A80187E
:10CC200001607047012181401548C16070471CB503
:10CC300001910090214A0821684601F091F81CBD3D
:10CC400010B500211E4A084601F08AF810BD10B543
:10CC50000246082905D0FF211AA214310020FFF74F
:10CC600025FF11685068884710BD10B5002904D011
:10CC700020A298210020FFF719FF01F0F5F910BD5F
:10CC800000050050EFBEADDE001000102FCC0300F9
:10CC9000002100202E2E5C6D61696E2E6300000065
:10CCA0000C0003004007005041CC0300402300204B
:10CCB000C3CA03000400FA0500ED00E04FCC0300F6
:10CCC0006BCC03002E2E5C2E2E5C2E2E5C2E2E5C4A
:10CCD0002E2E5C496E636C7564655C6170705F6379
:10CCE0006F6D6D6F6E5C6170705F74696D65722ED3
:10CCF000680000002E2E5C2E2E5C2E2E5C2E2E5CEC
:10CD00002E2E5C496E636C7564655C73645F636F43
:10CD10006D6D6F6E5C736F66746465766963655F75
:10CD200068616E646C65722E6800000010460A46E9
:10CD300010B5B2494C68042C03D1022A01D1002855
:10CD400006D0002803D0AEA24D21FFF7AFFE10BDE4
:10CD50008A69002AFBD01946904710BD10B5A74B31
:10CD600001201870032000F0A3F910BD10B5A34CEA
:10CD70002078002801D0082010BD606900F082FEF4
:10CD8000002803D09EA27021FFF790FE0F21002201
:10CD90004904606900F010FE040003D098A27321DA
:10CDA000FFF784FE204610BDF0B59B4987B0994837
:10CDB000924D08600024A1276C702946BF026C8048
:10CDC0002431954801F0D5FC00281CD105202946C6
:10CDD00080032431486028460146496AC1611C30FD
:10CDE00051264760B60202A800F0FEF90498FE281A
:10CDF00002D13868401C0ED0804831461C3001F00A
:10CE000004FD002802D06C6007B0F0BD0220019A3A
:10CE1000009900F04DF97948804A0021143000F063
:10CE200084FD002803D076A2A421FFF73FFE0F2146
:10CE300000224904686900F0BFFD002803D070A2F9
:10CE4000A821FFF733FEEE6001202C61686000200E
:10CE5000DAE76A498861704770B5684C0546E06852
:10CE6000854201D90C2070BDA80701D0062070BDF5
:10CE70006068012801D0082070BDFFF777FF002807
:10CE8000FAD10221A560616070BD70B5050004D0C3
:10CE9000287A800703D0102070BD0E2070BD574C3B
:10CEA0006068022805D0032803D0042803D0082096
:10CEB00070BD042060606868A168860020698019E0
:10CEC000884204D90020C04320610C2070BDFFF7C8
:10CED0004DFF0028FAD14948A96832461C30236921
:10CEE00001F063FC0028F1D1216989192161A26850
:10CEF0009142EBD0092070BDF8B5404C0546606802
:10CF0000022802D0032805D101E0032060602069D7
:10CF1000002801D00820F8BDFFF728FF0028FAD12B
:10CF20003D4B0021403B08E0AA688E00965962788C
:10CF30009700521CDE516270491C6A688A42F3D81D
:10CF4000F8BD70B52D4C6068042805D105206060DF
:10CF5000A1682069884201D0082516E0FFF706FF86
:10CF6000050012D1A12000228002A16801F058F82A
:10CF700029496080403962780988002A03D08842B4
:10CF800001D00B2070BD06206060284670BD3EB504
:10CF90001A4C6068062802D0082528463EBD606904
:10CFA00000F070FD002804D0FF2115A29531FFF795
:10CFB0007DFD1248A168243001F027FC002804D030
:10CFC000FF210FA29931FFF771FD0C4800231C309F
:10CFD00041680830A26801F0E8FB0500DDD100904F
:10CFE00061886A469180A2680292019900F060F817
:10CFF000D3E710B5042000F05BF810BD042000203A
:10D000002E2E5C6466755F6475616C5F62616E6B29
:10D010002E6300002DCD0300202500205DCD0300F0
:10D0200010B57B480368012B02D1022900D10160B1
:10D03000100003D077A23421FFF738FD10BD38B5BA
:10D0400005250024AD03401B15D1684600F0F4F817
:10D050000098016801290ED18188002908D0C16893
:10D060000022284600F0DCFF00998988814201D126
:10D07000012400E00024204638BD10B50446644871
:10D080001021001D01F03BFB002803D061A2852187
:10D09000FFF70CFD5E48002310222146001D01F021
:10D0A000A8FA002803D05BA28B21FFF7FFFC10BD7C
:10D0B00017B581B0684600F0BFF801995948544C43
:10D0C000002913D003291CD0FE22012923D00229D4
:10D0D0002CD0042909D101F034FD002803D04DA241
:10D0E000BE21FFF7E3FC042020601FBD69460989CB
:10D0F00081800399C1600121FF228260016021606B
:10D1000010E001F01EFD002803D042A2A421FFF789
:10D11000CDFC0320E8E7002181800260C160009916
:10D12000896881603F48FFF7A8FF1FBD00990B6821
:10D1300003608B888380C9688260C160F2E73EB576
:10D1400039480090102001900120029001F0CAF9A6
:10D1500000281FD12E496846091D01F0ECF900286E
:10D1600018D1FFF721FE002814D101F0E7FD054694
:10D17000274C3DDF002803D026A24621FFF796FC6E
:10D1800000F064FE2068022803D0032801D00428A0
:10D19000EFD128463EBD70B511DF002804D0FF2135
:10D1A0001CA20A31FFF782FC204900200B681F4CAB
:10D1B000012180340A4682401A4204D0C506ED0E91
:10D1C0000A46AA402260401CC0B22028F2D313DFD6
:10D1D000002804D0FF210FA20F31FFF767FC0520C4
:10D1E000800300F025F870BD1FB5094904460023EF
:10D1F0001022091D684601F03FFA00982060684639
:10D200008088A0800398E0600298A0601FBD0000A5
:10D21000302000202E2E5C626F6F746C6F6164652D
:10D22000722E63002C25002021D0030000E100E0D5
:10D2300010B5FFF799FB10BD014901607047000070
:10D2400000FC030030B585B0002822D00388F64CDE
:10D25000A34220D0F54B1B78002B1CD0F34B10259C
:10D260005B1C1D705970002401259A7003226946C9
:10D270000A820094019402940394C2890A808D70FA
:10D280008C8004A90291039300886946A6DF05B04B
:10D2900030BD0E20FBE70820F9E7F0B589B0044661
:10D2A0000227684607730D468783608A08AB07AA82
:10D2B0000021A5DF0026002804D0616A002917D0CC
:10D2C000884715E06846008CC007C00F10D068463C
:10D2D0000682208803A9A8DF002810D1A97E0B00B0
:10D2E00002F0D9FA093A0F11191B1D1F38223A0012
:10D2F000FF20FE3069460882208803A9A8DF09B014
:10D30000F0BD009601E001200CE0226A694620464B
:10D3100090470020F3E70097F7E7032002E004209E
:10D3200000E005200090F0E7288B032805D20322B7
:10D3300008212046FFF786FFE1E7287FE97E00020B
:10D3400008436946888003D006200090226ADEE701
:10D350000720FAE70920E5E70322EAE730B585B0C0
:10D360000D46040032D0002D30D0286800282DD082
:10D370000020C043AE4B20800FCB049301AB07C30A
:10D38000AC4869460880891C01A862DF00281CD1CE
:10D39000A21C69460120A0DF002816D168468078CB
:10D3A0002071204600F0C0F800280ED1204600F081
:10D3B000F9F8002809D1286820626868002800D0A0
:10D3C00060629A4901200870002060E70E205EE745
:10D3D0003EB5002820D000291ED0026A002A1BD0AA
:10D3E0000A88102A19D0112A28D0502A17D0512A79
:10D3F00012D10446891D087802280DD14888E28997
:10D40000904209D1891C2046FFF747FF002803D02E
:10D41000616A002900D088473EBD898810E0CA882B
:10D42000C3889A42F8D1082200928A7F6B461A710B
:10D4300020310291026A694690473EBD0021C943EE
:10D4400001803EBDF0B585B00A4605002DD0288884
:10D45000754988422BD075480078002827D0734C36
:10D460001020641C2070072060700127A770032122
:10D47000684601820026E11C104600F04CF8014687
:10D480006846008A0918684601820096019602964D
:10D490000396E98901808770868004A8039402902E
:10D4A00028886946A6DF05B0F0BD0E20FBE70820FE
:10D4B000F9E7F0B585B00A46050028D028885A4912
:10D4C000884226D059480078002822D0574C112095
:10D4D000641C20700127684607820026611C1046E4
:10D4E00000F019F801466846008A0918684601826A
:10D4F0000096019602960396E989018087708680DE
:10D5000004A80394029028886946A6DFCBE70E2082
:10D51000C9E70820C7E70870020A4A70020C8A703F
:10D52000000EC8700420704730B58FB005461C212E
:10D53000684602F0BCF86946087804210843694649
:10D5400008700024019403940494059406942879A7
:10D5500008A9887037486946801C0884601C000749
:10D560000794000F0C77103048778A7FF92002402B
:10D57000921CE7200240012002438A77142109A867
:10D5800002F095F808A8099007A80A9069468C85CA
:10D590001420CC8508860D946888AB1D09AAA2DFEB
:10D5A0000FB030BD30B58FB005461C21684602F083
:10D5B0007EF869460878082108431022104369461E
:10D5C0000870002401940394049405940694287927
:10D5D00008A9887017486946401C0884601C000729
:10D5E0000794000F0C7710304877887FF9210840A6
:10D5F000801CF721084010430121084369468877C1
:10D60000142109A802F053F808A8099007A80A9065
:10D6100069468C851720CC8508860D942B46688832
:10D620000E3309AAA2DFBBE7FFFF00003C20002069
:10D63000B0F80300301500008307FF22DB0E9A408C
:10D640008907090E994000280BDA0007000F0838F7
:10D650008308F8489B001B18D86990430843D86199
:10D6600070478308F4489B001B18186890430843D0
:10D6700018607047F0B5F14F28217C6841430D19BF
:10D68000F9684A1C09D028224A431619AB68B268C7
:10D69000934204D8D21AB2606962F860F0BD0A46BB
:10D6A00002E00A46796A9B1B4E1C0BD028264E438B
:10D6B0003719BE689E42F4D328264E433619B76800
:10D6C000FF1AB760AB60696228214A4311194862AA
:10D6D000F0BDF8B5D94CE568681C36D0D8480026AE
:10D6E00040682169401A07023F0A1AE02820454392
:10D6F00060682A189068B84215D863693F1A86197D
:10D70000556A002B0AD0116AD0699847002808D0C2
:10D71000FF21CCA25531FFF7C9F902E0D169106AA7
:10D720008847681CE2D1A178E078814206D1401C8C
:10D73000C0B2E070022801D10020E070BF490006AD
:10D74000800D18310E5000F0D6F9F8BDF8B504463A
:10D75000BA48C1680091467856E0B848F10082683E
:10D760008D184BE0601C07D0B44A282152686143F1
:10D77000204689184C6A20E02878182141436A68BD
:10D78000401CC0B252182870A978884201D10020EC
:10D790002870AA4B506828215B684143C918136858
:10D7A000012B2DD10B7E002B2AD19368CB60D3683F
:10D7B0000B6113694B6152690A62A04ACF68136911
:10D7C000BC46FA1A1202AB4F120ABA4202D20B69D5
:10D7D000D21809E062469A1A12020B69120A9342A1
:10D7E00001D99A1A00E000228A600022CA600A6108
:10D7F00001220A76921E4A62FFF73CFF601CB1D1FB
:10D80000287869788842ADD13046761EF6B2002875
:10D81000A3D18A48C1680098814201D00120F8BD97
:10D820000020F8BD94490020086048608860C86006
:10D8300091494039086048604BE7F0B5002087B057
:10D84000C04302907D480669C568684600F059F9F2
:10D85000074600F073F90446002F08D002AA3146AB
:10D86000009800F0B3F90298FFF770FF06E0029805
:10D87000FFF76CFF002801D1002C02D0284600F0F1
:10D88000CEF907B0F0BDFFB59807002481B01E4661
:10D8900015460F4600280BD1002E09D000F01AF9CA
:10D8A00066490A9848610F70324600204E6008E0D1
:10D8B000072005B0F0BD28234343D4509B181C76A5
:10D8C000401CB842F7DB28204743BB1903204870AF
:10D8D0000F4618468B6019461830002218232E4632
:10D8E0005E43D3005B181C705C709D7058603018EC
:10D8F000521C032AF5DB0020C043F860BC70FC70AA
:10D9000001245E482405046003211420FFF794FEDF
:10D910005B4804604A4C0198A06003211120FFF786
:10D920008BFE606838610020C3E770B5434C6568C2
:10D93000002D06D0002A06D0002804D00023247829
:10D9400009E0082070BD072070BD28265E43AE594F
:10D95000002E04D05B1CA342F7DB042070BD2824FA
:10D9600001265C432E516419E2616160036000206E
:10D9700070BD30494868C005C00D17D0103807D5B4
:10D980000207120F083A920892005118C96904E080
:10D990008108294A8900891809688007C00EC1409A
:10D9A0000806800F012803D0032803D00220704707
:10D9B0000020704701207047FEB504461F481746F7
:10D9C00042680D46002A0CD001788C4201D2052D08
:10D9D00001D20720FEBD2146282359435358012B6D
:10D9E00001D00820FEBD8818406801281DD00026FF
:10D9F000FFF7BFFFC00011490190896840186946D0
:10DA000000F050F9002812D00121446001600C4957
:10DA100049680830E2C009490198896841180098AE
:10DA2000487000F068F80020FEBD2E46E0E70420B4
:10DA3000FEBD000000ED00E000E400E04420002016
:10DA4000001501402E2E5C2E2E5C2E2E5C2E2E5CA0
:10DA50002E2E5C536F757263655C6170705F636FCF
:10DA60006D6D6F6E5C6170705F74696D65722E6351
:10DA700000000000FFFF7F004011014080E200E055
:10DA800000E100E0F8B5A64D04466868002809D01A
:10DA900029788C4201D30720F8BD282161434058E2
:10DAA000012801D00820F8BDFFF763FFC600A86871
:10DAB0006946301800F0F6F8002809D0022112C09B
:10DAC000A86831180098487000F015F80020F8BDDB
:10DAD0000420F8BD10B50121924A48041060924A12
:10DAE00040109060904A403A9060904841602F20EA
:10DAF000FEF740FF10BD01208A4900058031086013
:10DB0000704710B5864900238A78CC78A24212D09B
:10DB1000521CD2B28A70022A00D18B708A78804B54
:10DB2000920018339A580260086910180002000A1F
:10DB30000861012010BD0360002010BDF8B57848D1
:10DB4000C1680091457833E07548E90080680E1897
:10DB500034782AE0182060437168641C0818B17892
:10DB6000E4B2A14200D100240168022902D00329B5
:10DB70001BD113E06A4A40682821526841438F183C
:10DB8000397E002911D000F09FF8002038760CE093
:10DB900028277843C0180276406A03E060490022D3
:10DBA0004B68C868471CF3D1C8607078A042D1D1D7
:10DBB00028466D1EEDB20028C6D15948C1680098AC
:10DBC000814201D00120F8BD0020F8BDF7B5544CCA
:10DBD00000256768E3681EE028215943C9198E684B
:10DBE000864202D9301A886017E0801B751900261A
:10DBF0008E600E764E699C464B6AB646002E0AD061
:10DC0000019E76193602360ACE6076460E61166897
:10DC10004E6261461160591CDED1E360FEBDF8B56D
:10DC20003F49CA68531C3AD028235A434B68D2183C
:10DC300096683F4A54680F69401CE11B0D022D0A8B
:10DC4000ED1C0121002810D1374A08045060364AE3
:10DC5000403A5060374A40001060324A803A1060C3
:10DC6000324801602F20FEF785FEB54200D23546CE
:10DC7000E81900022E49000A403108602C49496821
:10DC8000001B091B0902090A0002C91C000A814283
:10DC900004D901202349400480310860F8BDFFF712
:10DCA00019FFF8BD42788378521C934200D10022BC
:10DCB0000378934201D1002070470A6041684078A0
:10DCC000182250430818704770B5154DEA686B6804
:10DCD0001446114606E0814207D00A4628267143C1
:10DCE000C918496A4E1CF6D170BD002EFCD08A427C
:10DCF00004D128204443E018406AE86028204143CA
:10DD0000C818282481686243406AD2185062421CB5
:10DD1000EAD028225043C01882685118816070BD33
:10DD20004420002080E100E0401301400010014049
:10DD30000015014080E200E030B5CB0008339DB211
:10DD400093070024002B01D0072030BD564B9A606A
:10DD50005219DA605C701C7058809980002030BDC8
:10DD6000F7B5514C82B060880F4681426CD80020D4
:10DD7000694608704E494D4E4868C005C00D16D022
:10DD8000103807D50207120F083A9208920051186E
:10DD9000C96904E08108474A890089180968800731
:10DDA000C00EC1400806850F012D01D10AE00425EF
:10DDB00068462BDF02280BD0002803D03EA2592151
:10DDC000FEF774FE6078A188884203D2401C02E00E
:10DDD00072B6F7E700202278C0B2904207D066788A
:10DDE0006078884201DA401C00E000206070012D5C
:10DDF0000BD062B6684600782CDF022805D00028D8
:10DE000003D02DA26121FEF751FE2848864219D089
:10DE1000A068F50004994151029900290CD0002F07
:10DE20000AD060883A464643E068301801F0E0FBCB
:10DE3000A0682818878002E000212818818000202F
:10DE400005B0F0BD0420FBE70920F9E70EB504E0BA
:10DE500068468188029A0098904702AA01A96846FC
:10DE600000F003F80028F3D00EBD70B50E4B05246A
:10DE70005D781E78B54215D01D781C789E88B44216
:10DE800001DA641C00E000241C705C88DE686C43CE
:10DE9000A41904609B68E800C418A4880C80185872
:10DEA00000241060204670BD64200020FFFF0000A9
:10DEB00000ED00E000E400E02E2E5C2E2E5C2E2E05
:10DEC0005C2E2E5C2E2E5C536F757263655C6170E8
:10DED000705F636F6D6D6F6E5C6170705F736368B0
:10DEE0006564756C65722E6300000000F0B5002259
:10DEF0000123032636041F4697400C463C420FD0B0
:10DF0000C5682C463C420FD03446BD43C5603C4DED
:10DF100097007D192F68B7432F602F6827432F6024
:10DF2000521C202AE7D3F0BD012464043D43EDE7F1
:10DF3000F8B53448056934490020C863074632E023
:10DF400014213A464A434168806854180121B94077
:10DF5000014226D0E068C64320686E400640314644
:10DF60002046FFF7C3FF2748006968400CD00543EF
:10DF7000E0682168C04368400840014600902046A0
:10DF8000FFF7B4FF009806433046A168A84301405C
:10DF90002A4660683240104002460A4301D0226996
:10DFA00090477F1CFFB2194841788F42C8D3F8BD13
:10DFB00010B5002903D08A070024002A01D00720C9
:10DFC00010BD124A0B465160107014215470414329
:10DFD0001846946001F06BFB00200D49C043886037
:10DFE0000C48402101600C4A1068FF231B04984331
:10DFF0000B041843106009480160002010BD0000A8
:10E0000000070050000500504061004074200020CF
:10E010000063004080E200E004E400E000E100E092
:10E0200010B50446002A02D01088002210E00A48E9
:10E03000FBE7030A00020343A05C584003061B0FE2
:10E0400043401803584083B21806C00C5840521C75
:10E050008A42EED310BD0000FFFF000010B5084655
:10E060001146FEF729FD10BDF8B5394C207800287F
:10E0700037D02069002807D00026E068002805D0A6
:10E080000025002E04D013E00126F6E70125F8E76D
:10E0900068464EDF052806D0002806D02DA269214B
:10E0A000FEF704FD04E0012602E02169009888479C
:10E0B000002D12D1608869460880A06860DF0528BD
:10E0C00006D0002806D023A28021FEF7EFFC04E052
:10E0D000012502E0E168A0688847002ED8D0002D15
:10E0E000CFD0F8BD70B5002901D08C0701D0072032
:10E0F00070BD174C0125A16062802449636010DF68
:10E100000028F5D12570162023DF70BD002803D02C
:10E110000F49C860002070470E207047002803D0C8
:10E120000B490861002070470E20704710B5084861
:10E130004068002808D08047002804D0FF2105A2AD
:10E140003331FEF7B3FC10BDFFF78EFF10BD0000AA
:10E15000802000202E2E5C2E2E5C2E2E5C2E2E5C1F
:10E160002E2E5C536F757263655C73645F636F6DB5
:10E170006D6F6E5C736F66746465766963655F6806
:10E18000616E646C65722E63000000005DE0030048
:10E1900018225043FA4A00218018017181604161C0
:10E1A000012281610261C1607047FFB581B0F54C09
:10E1B000049B039A054626691A4303200092002E09
:10E1C00003D1002A0ED0012222612769039A012679
:10E1D000360792003B0001F05EFB07270716294037
:10E1E000526127000222EFE77069326992B2504310
:10E1F000326933691204920C9BB2594351DF0028F3
:10E2000012D102210FE0084650DF00280CD10399FB
:10E21000002901D0032106E00499002916D12978AC
:10E22000042946D017E0216105B0F0BD706932695C
:10E2300092B25043326993B24B4301461846039A57
:10E2400051DF0028F0D10499002901D00421EAE728
:10E250002978042920D00521E5E7736930693669FA
:10E2600080B2434368681B189B18B6B24E433018FF
:10E2700080181946049A51DF0028E9D0D4E73069A4
:10E2800080B24843696880188A08696951DF0028AC
:10E29000CAD1009900290CD00621C4E77069316900
:10E2A00089B24843316989B201F014FA50DF00287D
:10E2B000BAD10721B7E7F8B5B14918230A780F207A
:10E2C0005A435418241DAF4922782669CF68022A80
:10E2D0001BD001252D07042A2AD0052A5BD12869E5
:10E2E00081B2304601F0F6F90146A36828699A190F
:10E2F00080B24843101A8208606818188619286985
:10E300004B1C80B25843801B34E0B80262686169DC
:10E31000121A0918A3683018181801239B029A4290
:10E3200002D2920851DF31E0FF22013251DF2DE0AD
:10E33000E268934914205043F4314018001D0BC883
:10E34000B04203D160685943814218D0022A16D0E6
:10E35000286981B2304601F0BDF90146286980B2D2
:10E360004843301A820828694B1C80B258436368BE
:10E370009B19C01A83082046FFF717FF06E028699B
:10E3800081B2304601F0A6F9C01950DF002802D151
:10E390007B4901228A70F8BDF8B5794C069E6578F4
:10E3A0000A2D1DD027787D19EDB20A2D01D30A3D23
:10E3B000EDB218277D432D192871AA6103C9EE60BB
:10E3C000AB6069612861A1780020002904D1FFF7C2
:10E3D00072FF112800D100206178491C6170F8BDDE
:10E3E0000420F8BD38B50246654818230178594322
:10E3F000081803690179022B0AD014246343604C86
:10E40000F434E4588368009383691030A04738BD22
:10E410005C4B14331C68F5E7F8B5594B9978012922
:10E4200014D1002557499D700A69082A05D0022891
:10E430000FD003280AD10D2006E0022807D00D7066
:10E4400000F007FA002801D0FFF7CCFFF8BD0D61FE
:10E45000F6E74B48182403784A496343CC681818F8
:10E46000641C001DCC600378022B05D14668A10214
:10E47000B14201D3012700E00027052B01D1072A73
:10E4800003D00021042B02D003E00121FAE7072A80
:10E4900003D00026042B02D007E00126FAE74068EB
:10E4A000A302834201D3002A1AD000203143014342
:10E4B0003943C5D0334E28463561FFF793FF304CC2
:10E4C0002078FFF765FEF5606078401E6070207868
:10E4D000401CC0B220700A28B2D30A382070AFE7BF
:10E4E0000120E3E770B50025264C2548E56025614D
:10E4F0000570457085702E463046FFF749FE761C44
:10E500000A2EF9D301221207656051692846126963
:10E51000491E92B25143E560A1601949F4310D6082
:10E520008D600D61CD60174914310D608880012127
:10E530002170206170BDF0B5124A1378002B23D0F2
:10E54000002823D0002921D00368002B1ED00124ED
:10E55000240743682569ADB2AB420FD8102B0DD309
:10E560008568002D0AD092685D436669AD182769F9
:10E57000BFB27E43B54201D89B0709D00720F0BD4A
:10E580003C250020942000200820F8E70E20F6E724
:10E59000B84D6B68012B1BD00B604A6019461425DF
:10E5A0006943B54D4E19726007686F504168B1609C
:10E5B0008168F16041688068002541436D1C2069D5
:10E5C000ADB280B2884205D2206980B2091A02E059
:10E5D0000420D4E70021206980B28218206980B22B
:10E5E0008842EBD9A3485B1C826035614360002000
:10E5F000C5E7F8B504469F481E46007815460F4605
:10E60000002807D0002F07D0002C05D02068002854
:10E6100017D103E00820F8BD0E20F8BD9648016828
:10E6200000290ED0C268816840684A4310186268A9
:10E63000904206D9002D04D0A94202D3A8198842DD
:10E6400001D90720F8BD384600F0FDF8002811D0A8
:10E65000304600F0F8F800280CD0606800F0F3F8BD
:10E66000002807D02B463A46214602200096FFF7A5
:10E6700093FEF8BD1020F8BDF8B507467D481E464C
:10E68000007815460C46002807D0002C07D0002F34
:10E6900005D02068002817D103E00820F8BD0E201F
:10E6A000F8BD7548016800290ED0C26881684068CD
:10E6B0004A4310186268904206D9002D04D0A9423E
:10E6C00002D3A819884201D90720F8BD384600F0C6
:10E6D000BAF8002811D0304600F0B5F800280CD068
:10E6E000606800F0B0F8002807D060682A468119F9
:10E6F000384600F07DFF0020F8BD1020F8BDF8B5C9
:10E7000005465C480F460078002805D0002D05D04E
:10E710002868002821D103E00820F8BD0E20F8BDAC
:10E72000554C00262068002817D0A168E0684843AF
:10E7300061684118686881420FD900F084F80028A8
:10E740000DD0296814225143091968684A688968FC
:10E75000801A00F0BFFF002903D00720F8BD102069
:10E76000F8BD3B460022294604200096FFF714FE20
:10E77000F8BD404A1278002A0DD000280DD000299B
:10E780000BD00268002A08D03A4A14321368002BD2
:10E7900005D004207047082070470E2070470223E0
:10E7A0000B600068106000207047F8B504463148DF
:10E7B0001E46007817460D46002807D0002D07D0CA
:10E7C000002C05D0206802281BD103E00820F8BDEA
:10E7D0000E20F8BD274814300068002811D00846E4
:10E7E00000F031F800280ED0304600F02CF8002858
:10E7F00009D03B462A46214602200096FFF7CCFD71
:10E80000F8BD0720F8BD1020F8BD08B5194A1278E8
:10E81000002A05D0002805D00268022A11D103E0A1
:10E82000082008BD0E2008BD124A14321268002AC2
:10E8300007D00B460022014604200092FFF7ACFDF2
:10E8400008BD072008BD800701D0002070470120C7
:10E850007047094810B5F43840780024002807D0E4
:10E86000FFF729FD040003D0112C01D0FFF7BAFDFA
:10E87000204610BD94200020302600204B48002167
:10E8800001704C484A4A02608160C16001610822FF
:10E890004161426081610846704710B500291DD072
:10E8A00000220A60434A5368002B1BD0202817D847
:10E8B0005B1E5360D0682423401CD060106914682C
:10E8C0004343E3180B60012383409169401C1943C3
:10E8D0004007400F91611061002010BD0E2010BD57
:10E8E0000C2010BD042010BDF0B5324A06469168D8
:10E8F00000292BD057691020791A4907490F14684D
:10E900000B4624254D436519B54206D1012495696E
:10E910008C4065400020956104E0491C4907490F7F
:10E920008F42EED1491C4E07760F956901210C46A6
:10E930009C402B4623420AD19368002B07D05B1ED4
:10E94000936053685B1C53603346F0E70420F0BDCE
:10E95000184A2423117C1268491E4907490F59435C
:10E96000203150500020704770B500281AD000297F
:10E9700018D0104AD368002B16D05B1ED360936862
:10E9800024265B1C9360536915681C467343EE187C
:10E9900020330660E858641C08606007400F50612F
:10E9A000002070BD0E2070BD042070BDB02000207E
:10E9B000442600206427002010B500280BD0FE4814
:10E9C000FE49808888420FD0132176DF00280BD0C3
:10E9D000FBA2702106E00846FFF786FF002803D05F
:10E9E000F7A27621FEF762F810BD08280CD004DCEF
:10E9F000002807D006280FD108E00B280AD00C28E1
:10EA00000AD105E0012070470220704703207047BB
:10EA100004207047042901D0062070470520704764
:10EA200010B50A46044603211046FFF7DEFF0246F2
:10EA300003212046FEF706FC002803D0E0A2B821FF
:10EA4000FEF734F810BDF0B5054608790E4685B0DE
:10EA500081070AD0032211462846FEF7F3FB00285F
:10EA600021D0FF21D6A2253146E0D34900901031B4
:10EA7000FFF713FF010013D1CF4CB168009A206952
:10EA800000F0B6FD0098FFF763FF002801D00146B3
:10EA900006E0C94869461030FFF766FF010004D060
:10EAA0002846FFF7BDFF05B0F0BD00988008029032
:10EAB000032001902069039001A8FEF7E6F9070002
:10EAC0000CD0092F1BD02069FFF70EFF002803D0C0
:10EAD00001462846FFF7A4FF3946E1E73079E1888F
:10EAE00001224018E08003212846FEF7ABFB0028F6
:10EAF000D9D0FF21B2A25531FDF7D8FFD3E7307945
:10EB0000E188401881B2E18060780028CBD060892C
:10EB1000401E0004000C6081C5D12846FEF7C9FCE8
:10EB2000002804D0FF21A6A26631FDF7BFFF20898F
:10EB30006081B8E710B5FF21A1A2A131FDF7B6FFB2
:10EB400010BD10B59C4C9D49A088884208D0132167
:10EB500076DF002815D09AA29F49FDF7A7FF10E0A5
:10EB6000A07800280DD074DF002804D09A4994A220
:10EB7000FF39FDF79BFFFF2098490130C860002056
:10EB8000A07000F076FA002804D093498CA20931D5
:10EB9000FDF78CFF002010BD70B50D680446012004
:10EBA000854A2B0000F077FE0A33303206162446E1
:10EBB0004B354F23FEF7C5F90421FFF716FF024638
:10EBC00004212046FEF73EFB002810D0FF217CA246
:10EBD000D33140E0FFF7B5FF002804D0FF2178A231
:10EBE000D931FDF763FFFEF7D2F9002809D170BDD6
:10EBF000FFF7A7FF002804D0FF2171A2E531FDF740
:10EC000055FFFEF7F6F970BD022000E00320D0604A
:10EC100070BDD2682046012A06D0022A07D0032AF6
:10EC2000F6D1FFF710FF70BD00F001F970BD00F0E4
:10EC300027F970BD507088881081508170BD002008
:10EC40005070108170BDD1882046FEF7FBFB002874
:10EC5000F8D05BA26249FDF729FF70BD10B5564C94
:10EC6000A07800280DD15F4873DF002804D05C49EC
:10EC700053A21331FDF71AFF0120584A0102916097
:10EC8000A07010BD70B54C4C0588A388132D2CD0F6
:10EC90000ADC554A5149102D18D0112D15D1CA60E2
:10ECA000207800281BD01CE0522D29D0552D0CD1E6
:10ECB0008079002809D11321184676DF002804D076
:10ECC00047493FA25C31FDF7F1FE70BD8A60FF222B
:10ECD0000132CA608088A0800020A07070BDFFF75C
:10ECE000BDFF0020C043A08070BD334A18461432D7
:10ECF00000217FDF0028F7D0394931A25431E2E703
:10ED0000002211461846A9DF0028EDD04D212CA283
:10ED1000C900D8E710B5044600F0DCF931482146B7
:10ED20001430FEF755FB2046FFF7ACFF10BD10B5C1
:10ED3000B72123A28900FDF7B9FE10BD10B51E480A
:10ED400088B00024C460294901200860091D0860BA
:10ED500026491C3108602648FFF7D8F9002864D1FD
:10ED60002448FEF776F8FFF789FD00285DD100F012
:10ED7000B8F821480090214801901A48694614309B
:10ED8000FEF7ECFA002804D013490DA23B39FDF739
:10ED90008DFE00F0CAF81C21684600F088FC184877
:10EDA00001900120800302900094032168460173C2
:10EDB000C4810474134827E0B8200020FFFF00003E
:10EDC0002E2E5C6466755F7472616E73706F727400
:10EDD0005F626C652E6300002A030000000500508E
:10EDE00006020000802700200002000020070050DB
:10EDF00015ED0300B9E9030099EB03002FED0300C3
:10EE0000CD0C000035EB030006900594684600F039
:10EE10000CF9002804D0FF21674AB831FDF746FEFF
:10EE200000F0B8F8FFF71AFF002008B010BD70B569
:10EE300005460879042809D0032201212846FEF757
:10EE400001FA00281BD05C4ACC2116E08C682046D1
:10EE500000F02FFCE1780002000A09060843FDF7E4
:10EE6000FBFF0121FFF7C1FD024601212846FEF705
:10EE7000E9F9002803D0504ADD21FDF717FE70BDE7
:10EE8000FEB50446012000908868029008790022AF
:10EE900083070FD08007800F0422121A0020034638
:10EEA00006E00E79029D3618B600401CAB51C0B288
:10EEB0009042F6D308798018800801906846FEF7E2
:10EEC0001BF80221FFF791FD024602212046FEF7C2
:10EED000B9F9002804D0FF21374A1031FDF7E6FDCB
:10EEE000FEBD0EB5112069460872072233A102A8A3
:10EEF0007CDF002803D0304A3249FDF7D7FD0020DF
:10EF000000900922694601900A800C224A8088807C
:10EF1000FF209130C88068467ADF002804D0552150
:10EF2000254AC900FDF7C2FD0EBD10B592B00621FD
:10EF3000684601712448017968468170234901803F
:10EF40003C2102A800F0B3FB022002900024684696
:10EF500044730121018201A80590684681830890CD
:10EF6000214602A800F026FA002804D01549124ACA
:10EF70002831FDF79BFD14481421143800F097FB4D
:10EF800011481438047044600472282101824482BC
:10EF900012B010BD0E491E2008808878012210434F
:10EFA000E12210400C30DF22104088700720C8702A
:10EFB0001020087170470000C0ED030044667554CE
:10EFC000617267009E020000942700203015000047
:10EFD000CC20002038B56749674A488890420FD056
:10EFE0004A78664C521CD2B24A70237B934208D3B3
:10EFF000083175DF002803D0A169002900D08847B7
:10F0000038BD00254D70217C002907D03B2176DFDB
:10F01000002803D0A169002900D088476169002930
:10F02000EED068460095884738BD70B50546014664
:10F030001C225248FDF7AEFC4E4C00262670296873
:10F04000002907D00822A01800F0D2FA2046083084
:10F050007ADF02E0474808307BDF002808D1401EF5
:10F06000608044486670464A0021001DFEF75DFC42
:10F0700070BD10B53F484068FEF704FD10BDF8B5FF
:10F080003C48103000F069F800263A4D3B4C00280F
:10F0900006D06169002919D001200090684614E06B
:10F0A0002878002804D0616900290FD00096F5E780
:10F0B000687800280CD0A16800226868FEF77CFC04
:10F0C000002803D0A169002900D088472E70F8BD20
:10F0D0006168F1E7F8B5294C02880027254DE689DB
:10F0E000102A18D029464968112A21D0122A2DD079
:10F0F000502A0FD1801D0288B2420BD1028B022A06
:10F1000008D1C27E837E10021843C007C00F13D0FF
:10F11000FFF7B5FFF8BD81886980014615480822D0
:10F120000E31103000F064FA6F70002EF0D0F8BD90
:10F130000020C04368806F700846FEF7A3FC0028DB
:10F14000F5D0A1690029F2D08847F8BD811D094892
:10F150000822103000F04CFADAE741880548083000
:10F160000288914204D34088814201D8012070472F
:10F1700000207047D4200020FFFF0000BC270020A3
:10F18000D5EF0300FFB583B0074600200C9C8646F0
:10F19000267805463AE07868A90041180A8868464A
:10F1A00082804988C1800022694601A864DF002866
:10F1B00010D1684601780598814226D17046002812
:10F1C00001D0002200E002222078891841181F296E
:10F1D00002D90C2007B0F0BD7146002908D1401CAF
:10F1E000C0B2411C069B049A21701A540120864625
:10F1F000217806980A18694601A864DF0028E9D139
:10F20000694620780978401820706D1C3888A8421B
:10F21000C1DC7046002804D020780699801B401E6F
:10F2200088550020D6E7F8B51546069C1E460746C9
:10F2300002220094FFF7A6FF002806D133461022D1
:10F24000294638460094FFF79DFFF8BDF7B582B018
:10F2500000260546167000681446002805D028468A
:10F26000039900F0DFF806002DD1687900281BD043
:10F270002078039F001D1F2824D8684679DF0028C6
:10F2800021D121780322481C20707A542178192238
:10F29000481C20707A542078C1196846008800F014
:10F2A000BCF82178401820702989002923D001203A
:10F2B0008446EA680398002A07D0227853189B1CDA
:10F2C0001F2B04D90C2005B0F0BD0720FBE7134627
:10F2D000521C491C2270C15422786746511C21706F
:10F2E000875423782A891818E96800F081F9207872
:10F2F000297A401820702869002815D0002141562D
:10F3000022788C46D01C03991F28DBD8501C02237E
:10F3100020708B5422780A23501C20708B54207844
:10F320006246431C23700A54A88A002809D0284644
:10F330000094062202211430039BFFF774FF06009D
:10F34000C1D1A88B002809D02846009407220321A8
:10F350001C30039BFFF767FF0600B4D1A88C002880
:10F3600009D028460094152214212430039BFFF76E
:10F370005AFF0600A7D1E86A002805D02246039963
:10F3800000F085F806009ED1286B002805D02246A3
:10F39000039900F0BBF8060095D13820405D0028A5
:10F3A00006D022462846039900F0E2F806008AD1EA
:10F3B000304688E770B50D4692B000216A4611705C
:10F3C00007241171002812D00189002905D0C168D5
:10F3D000002902D00978490702D4204612B070BD36
:10F3E00002A9FFF733FF0028F8D102AE00E00026A3
:10F3F000002D0BD028890028EFD101AA0AA92846A0
:10F40000FFF724FF0028E9D10AAA00E0002268469D
:10F4100003790178304672DFE0E70870000A48702F
:10F4200002207047F8B514780746A01C15460E4612
:10F430001F2803D83879801C1F2801D90C20F8BD5B
:10F440001D20001B80B26946864608803019801C4A
:10F450007DDF0028F3D13868022805D1684600888E
:10F46000704501D8092107E038790821002801D02A
:10F47000704501D968460088421C3255641CE2B2CE
:10F48000B1542978801C081828700020F8BDF8B500
:10F490000D4611780646881D14461F2801D90C20F8
:10F4A000F8BD33880720062BFAD31927FF01BB428A
:10F4B00002D94E4A9342F3D17288062AF0D3BA4257
:10F4C00002D94A4FBA42EBD1484FBB4203D0BA42AD
:10F4D00001D09342E4D8481C052220706A54207859
:10F4E0001222411C21702A54207841193088FFF7DC
:10F4F00094FF21784018C0B2207041197088FFF73E
:10F500008CFF2178401820700020F8BD70B50546AA
:10F5100000790E46801C1446C0B21178821C8A18ED
:10F520001F2A01D90C2070BD0A46491C401C2170BD
:10F53000B0542078FF22411C217032542078811968
:10F540002888FFF76AFF21784018C0B22070AA8887
:10F55000002A09D0A968002908D0801900F048F8CD
:10F560002078297940182070002070BD072070BDD8
:10F57000F7B582B002981446406B0F46002832D08F
:10F58000029800252030009028E00298416B0C2062
:10F5900068430E18217830794A1CC01C22707854B8
:10F5A00021781622481C20707A542078C11930889E
:10F5B000FFF733FF21784018C0B22070B288002ACC
:10F5C00009D0B16800290ED0C01900F011F82078D8
:10F5D0003179401820706D1C0098EDB2007EA84271
:10F5E000D3D800206FE607206DE60000FFFF000083
:10F5F000F8B5042A2CD3830712D00B78491C03706A
:10F60000401C521E83070BD00B78491C0370401C12
:10F61000521E830704D00B78491C0370401C521EF5
:10F620008B079B0F05D0C91ADF002023DE1B08C9FA
:10F630000AE0FDF7AFF9F8BD1D4608C9FD401C46BC
:10F64000B4402C4310C0121F042AF5D2F308C91A83
:10F65000521EF0D40B78491C0370401C521EEAD491
:10F660000B78491C0370401C521EE4D409780170C9
:10F67000F8BD01E004C0091F0429FBD28B0701D5A6
:10F680000280801CC90700D00270704700290BD08F
:10F69000C30702D00270401C491E022904D383070D
:10F6A00002D50280801C891EE3E70022EEE70022DB
:10F6B000DFE70378C2781946437812061B02194324
:10F6C0008378C0781B04194311430902090A000614
:10F6D00008437047002203098B422CD3030A8B4254
:10F6E00011D300239C464EE003460B433CD400223A
:10F6F00043088B4231D303098B421CD3030A8B424C
:10F7000001D394463FE0C3098B4201D3CB01C01A19
:10F71000524183098B4201D38B01C01A52414309E4
:10F720008B4201D34B01C01A524103098B4201D3D2
:10F730000B01C01A5241C3088B4201D3CB00C01A3F
:10F74000524183088B4201D38B00C01A52414308B7
:10F750008B4201D34B00C01A5241411A00D20146DC
:10F760005241104670475DE0CA0F00D04942031075
:10F7700000D34042534000229C4603098B422DD3C4
:10F78000030A8B4212D3FC22890112BA030A8B426C
:10F790000CD3890192118B4208D3890192118B42BB
:10F7A00004D389013AD0921100E08909C3098B4240
:10F7B00001D3CB01C01A524183098B4201D38B0183
:10F7C000C01A524143098B4201D34B01C01A524126
:10F7D00003098B4201D30B01C01A5241C3088B426B
:10F7E00001D3CB00C01A524183088B4201D38B0056
:10F7F000C01A5241D9D243088B4201D34B00C01AE0
:10F800005241411A00D20146634652415B101046F4
:10F8100001D34042002B00D54942704763465B103C
:10F8200000D3404201B50020C046C04602BD70472B
:10F8300070477047754600F023F8AE4605006946EC
:10F840005346C008C000854618B020B5FDF71AF928
:10F8500060BC00274908B6460026C0C5C0C5C0C563
:10F86000C0C5C0C5C0C5C0C5C0C5403D49008D4666
:10F8700070470446C046C0462046FDF76EF80000BB
:10F8800000487047D827002001491820ABBEFEE78A
:10F8900026000200704730B47446641E2578641C4C
:10F8A000AB4200D21D46635D5B00E31830BC1847D5
:10F8B00023D1BCEA5F782315DEEF121200000000AE
:10F8C000E0F8030000200020EC00000004C9030061
:10F8D000CCF90300EC2000204C13000020C90300E9
:10F8E0000024F40000000000000000000000000000
:10F8F0000000000000000000000000000000000008
:10F9000000000000000000000000000000000000F7
:10F9100000000000000000000000000000000000E7
:10F9200000000000000000000000000000000000D7
:10F9300000000000000000000000000000000000C7
:10F9400000000000000000000000000000000000B7
:10F9500000000000000000000000000000000000A7
:10F960000000000000000000000000000000000097
:10F970000000000000000000000000000000000087
:10F980000000000000000000000000000000000077
:10F99000000000000000000000000000FFFF000069
:10F9A0000000000000000000000000000000000057
:10F9B0000000000000000000000000000000000047
:0CF9C0000000000000000000000000003B
:020000041000EA
:0410140000C803000D
:040000050003C8C16B
:00000001FF
